:0C0A750054494D453A00444154453A00B4
:050A9700D2B6C2B62238
:0A0A8D00EF4E6003D2B422C2B4227F
:04088900AD07AC0605
:10088D00E4FBFAAF037E007401A807088005C333AB
:10089D00CE33CED8F9FFEE5CFEEF5DFF120A8D125E
:0D08AD000A970BBB00010AEB64084A70D6E5
:0108BA00221B
:10081F009000007E00120889E4FDFCE583C313F508
:10082F0083E58213F58230B40543828080065382BC
:10083F007F758300120A970DBD00010CED64084C03
:04084F0070D9AF822B
:010853002282
:100A1E00A905D2B57E00120889AF017E00120889A1
:030A2E00C2B5222C
:10064300D2B57FBF7E00120889E4FDFCE4F583F593
:1006530082FBFAE583C313F583E58213F58230B495
:1006630005438280800653827F758300120A970BAD
:10067300BB00010AEB64084A70D9ED25E02429F890
:10068300A68308A6820DBD00010CED64084C70BC66
:02069300C2B5EE
:010695002242
:10093300C2B5C2B6E4FD7F8E120A1E7DAB7F901254
:100943000A1E7F8112081FEF54816007E4FD7F8038
:03095300120A1E67
:01095600227E
:100975008F418D42AF03AD077F80120A1EAD427FC6
:0B09850082120A1EAD417F84020A1E90
:1009DF008F41E541C4540F2430FF120A43E54154BF
:0709EF000F2430FF020A4350
:10073C00E4FDFF120A0A7BFF7A0A79751208BB7D69
:10074C0006E4FF120A0AAF2E1209DF7F3A120A439F
:10075C007F0A7E001209137D09E4FF120A0AAF2CEE
:10076C001209DF7F3A120A437F0A7E001209137DB9
:10077C000CE4FF120A0AAF2A1209DF7F0A7E00027C
:02078C0009134F
:1009C6008D418B42AD077F86120A1EAD417F88128C
:0909D6000A1EAD427F8C020A1ECC
:10069600E4FD7F01120A0A7BFF7A0A797B1208BB06
:1006A6007D067F01120A0AAF301209DF7F3A120A6D
:1006B600437F0A7E001209137D097F01120A0AAFE1
:1006C600321209DF7F3A120A437F0A7E00120913AB
:1006D6007D0C7F01120A0AAF361209DF7F0A7E00FF
:0306E600020913F3
:1008E6001209F61209337B507D597F231209757B55
:1008F600237D127F311209C6D2B5120643C2B51244
:07090600073C12069680F188
:06085400016100016200D9
:1007D8001209F61209337B507D597F231209757B64
:1007E800237D127F311209C61202A08F62E56124AF
:1007F800FE6014240270F1120A811203F6E562B455
:1008080043E675610180E1120A811208E6E562B4E7
:0708180043D6E4F56180D135
:1009F6007F38120A317F0C120A317F01120A317FC9
:040A060080020A312F
:100A31008F80C2A5C2A612090DC2A77F0A7E00023D
:020A4100091397
:100A43008F80C2A5D2A612090DC2A77F0A7E00021B
:020A5300091385
:0608BB008B4A8A4B894CB8
:1008C100E4F54DF54EAB4AAA4BA94C854E82854DB8
:1008D100831201C8FF600D120A43054EE54E70E513
:0408E100054D80E160
:0108E50022F0
:100A0A00EF7007ED2480F54A8005ED24C0F54AAF62
:040A1A004A020A3151
:0C0A81007F01120A317F057E000209137C
:06090D00D2A77F0A7E0064
:10091300E4FDFCC3ED9FEC9E5015E4FBFA0BBB001A
:0F092300010AEB64704A70F50DBD00010C80E411
:0109320022A2
:0E0A670063616C63756C61746F723A003D00E0
:1003F600E4F541F542FDFF120A0A7BFF7A0A7967A6
:100406001208BB1202A08F471205DC8E438F44E40C
:10041600FD7F01120A0AAF47120A431202A08F4952
:100426007D017F01120A0AAF49120A431202A08F08
:10043600481205DC8E458F467D027F01120A0AAFFF
:1004460048120A437D037F01120A0A7BFF7A0A7962
:10045600731208BB7D047F01120A0AE54924D6609F
:100466002424FD601324FE602E24047040E54625F6
:1004760044FDE5453543800AC3E5449546FDE5431D
:100486009545FC8022AC45AD46AE43AF441201F51E
:10049600AC06AD07EC8010AC45AD46AE43AF44129A
:1004A6000207AC06AD07EC12010E1204B7E4FEFF1C
:0104B6002223
:1002A000E4F54AE54A643070030203ECE54A643140
:1002B00070030203ECE54A643270030203ECE54A82
:1002C000643370030203ECE54A643470030203EC08
:1002D000E54A643570030203ECE54A6436700302B4
:1002E00003ECE54A643770030203ECE54A643870B6
:1002F000030203ECE54A643970030203ECE54A6447
:100300002D70030203ECE54A642A70030203ECE556
:100310004A643D70030203ECE54A642B7003020358
:10032000ECE54A642F70030203ECE54A6443700372
:100330000203ECC290D291D292D2932094062090E4
:1003400003754A2B209506209003754A2D209606AA
:10035000209003754A2A209706209003754A2FD2D1
:1003600090C291D292D293209406209103754A3D77
:10037000209506209103754A332096062091037537
:100380004A36209706209103754A39D290D291C2FD
:1003900092D293209406209203754A30209506202D
:1003A0009203754A32209606209203754A352097AB
:1003B00006209203754A38D290D291D292C29320ED
:1003C0009406209303754A43209506209303754AAB
:1003D00031209606209303754A343097030202A316
:1003E0003093030202A3754A370202A37FE87E031B
:0503F000120913AF4AE1
:0103F50022E5
:1005DC00EF24D0B40A00505B9005F275F003A4C56B
:1005EC008325F0C583730206100206120206170259
:1005FC00061C02062102062602062B020630020603
:10060C003502063A802D7E007F01227E007F022279
:10061C007E007F03227E007F04227E007F05227EE7
:10062C00007F06227E007F07227E007F08227E004C
:07063C007F0922E4FEFF220A
:0804B7008F4D8E4C8D4B8C4AD9
:1004BF00E4F54EF54FF550FFFE7D207C41AB4DAA84
:1004CF004CA94BA84A1200031201478E518F52AF0D
:1004DF004DAE4CAD4BAC4A1201478E538F54C3E512
:1004EF00536480948050107CFF7DFF1201F58E5372
:1004FF008F547F2D120A43AE53AF547C007D0A12E6
:10050F0002078F4FE54F60062430FF120A43E54F75
:10051F0075F00AA4FEC3E5549EF54E2430FF120A6F
:10052F00437F2E120A43AE51AF527C007D0A120256
:10053F0007ED2430F550FF120A437FD07E070209E2
:01054F001398
:10085A000114000808000C00080004000014150028
:10086A003F0006005B004F0066006D007D00070038
:03087A007F006F8D
:020A9C002E002A
:0B087D0002570000015B00025C00005D
:10099000D2B77F087E00120A5CC2B77F417E001288
:0B09A0000A5CD2B77F147E00020A5CE4
:070A55001209AB7F0A7E00CD
:0B0A5C00EF1FAC0670011E4C70F6226C
:10095700E4FB7D08C2B7EBC313FBD2B730B7034341
:0D09670003807F047E00120A5CDDE9AF030F
:010974002260
:0209AB00AD0796
:1009AD007B08C2B7ED1392B77F057E00120A5CD2A9
:0809BD00B7EDA2E713FDDBEA30
:0109C500220F
:1006E9001209907FCC1209AB7F44120A5512099066
:1006F9007FCC1209AB7FBE120A55120957755C00EF
:100709008F5D1209578F5BEF7F00FEEF255DFFE5D7
:100719005C3EC4F854F0C8EFC4540F48F560FF7E3E
:10072900007C007D091201F57D05120207EF2420E6
:03073900F5552251
:10078E00EF75F064842430F55FEF75F06484E5F066
:10079E0075F00A842430F55AEF75F00A84E5F024DA
:1007AE0030F559EFF556C395562430F55EAF5F120E
:1007BE000A43AF5A120A43AF59120A437BFF7A0A11
:0A07CE00799C1208BBAF5E020A43DB
:10000300EC4D6011E8497017ED33EC3304600DE4F7
:10001300FCFFFEFD22E933E8330470F80201B3125A
:10002300017E58046009E4CC24815006285009025B
:1000330001BD2840030201BAC0E0EB4A7044B98015
:1000430006D0E0FB0201A9EF4E701CBD8008EBFF58
:10005300EAFEE9FD80EBE98DF0A4FEE5F00200EC99
:10006300E9CDF9EAFEEBFFEF89F0A4FCE5F0CE89D8
:10007300F0A42EFFE435F0CD89F0A42DFEE435F095
:100083008067EF4E7005BD80D780C3EF8BF0A4ACC3
:10009300F0EE8BF0A42CFCE435F0F8EF8AF0A42CFE
:1000A300E5F038FCE433CB8DF0A42CFCE5F03BF811
:1000B300EE8AF0A42CFCE5F038F8E433CF89F0A401
:1000C3002CFCE5F038CF3400CE89F0A42FFFE5F007
:1000D3003EFEE433C98DF0A42EFEE5F039CD8AF05F
:1000E300A42FFFE5F03EFEE43DFD33D0E0FB5007D7
:1000F3000BBB000F0201BDEC2CFCEF33FFEE33FE14
:06010300ED33FD02019541
:1001090075F020800E75F010800575F0087D007E71
:10011900007F003392D530D50312023DEC334010F5
:10012900EF33FFEE33FEED33FDEC33FCD5F0ED227A
:0E013900E5F0247EA2D513CC92E7CDCEFF22B6
:10014700EDD2E7CD33EC3392D524814006E4FFFEB0
:10015700FDFC22FCE4CFCECDCC24E0501174FF800F
:10016700EDC3CC13CCCD13CDCE13CECF13CF0470AC
:07017700F030D5DE02023D6D
:10017E00E9D2E7C933E833F892D5EDD2E7CD33ECC7
:07018E0033FC5002B2D52240
:10019500EC30E7100FBF000C0EBE00080DBD0004CB
:1001A5000BEB6014A2D5EB13FCED92E7FD2274FF77
:1001B500FCFDFEFF22E480F8A2D574FF13FC7D80D0
:0301C500E480EFE4
:03000000020550A6
:0C055000787FE4F6D8FD75816202059703
:1001C800BB010CE58229F582E5833AF583E02250EC
:1001D80006E92582F8E622BBFE06E92582F8E22236
:0D01E800E58229F582E5833AF583E4932250
:1001F500EF8DF0A4A8F0CF8CF0A428CE8DF0A42E1E
:02020500FE22D7
:10020700C2D5EC30E709B2D5E4C39DFDE49CFCEE12
:1002170030E715B2D5E4C39FFFE49EFE12024BC33D
:10022700E49DFDE49CFC800312024B30D507C3E438
:060237009FFFE49EFE2281
:0E023D00C3E49FFFE49EFEE49DFDE49CFC22D2
:10055C000207D8E493A3F8E493A34003F68001F2D6
:10056C0008DFF48029E493A3F85407240CC8C333A0
:10057C00C4540F4420C8834004F456800146F6DF6F
:10058C00E4800B0102040810204080900854E47EA3
:10059C00019360BCA3FF543F30E509541FFEE49364
:1005AC00A360010ECF54C025E060A840B8E493A32B
:1005BC00FAE493A3F8E493A3C8C582C8CAC583CA56
:1005CC00F0A3C8C582C8CAC583CADFE9DEE780BE0E
:01088800006F
:10024B00BC000BBE0029EF8DF084FFADF022E4CC97
:10025B00F875F008EF2FFFEE33FEEC33FCEE9DEC60
:10026B00984005FCEE9DFE0FD5F0E9E4CEFD22EDA6
:10027B00F8F5F0EE8420D21CFEADF075F008EF2FF0
:10028B00FFED33FD4007985006D5F0F222C398FDE1
:05029B000FD5F0EA227E
:00000001FF
