:100667004552524F520073696D706C650063616C3F
:0806770063756C61746F720081
:0B06CB0002090000020B000001080003
:10000300C297D296D295D29420933E7F1E7E001241
:1000130006472093347F371206B9E5087015AE09F9
:10002300AF0AFC7D0A120463EF2407F50AE43EF5E8
:100033000980DFAE0BAF0C7C007D0A120463EF2452
:1000430007F50CE43EF50B80C920923E7F1E7E002F
:100053001206472092347F381206B9E5087015AEB0
:1000630009AF0AFC7D0A120463EF2408F50AE43E93
:10007300F50980DFAE0BAF0C7C007D0A120463EF41
:100083002408F50CE43EF50B80C920913E7F1E7ECB
:10009300001206472091347F391206B9E50870151E
:1000A300AE09AF0AFC7D0A120463EF2409F50AE4E2
:1000B3003EF50980DFAE0BAF0C7C007D0A120463B2
:1000C300EF2409F50CE43EF50B80C92090177F1E41
:1000D3007E0012064720900D7F2F1206B975080186
:1000E300750D2F80F0D297C296D295D29420933E6D
:1000F3007F1E7E001206472093347F341206B9E533
:10010300087015AE09AF0AFC7D0A120463EF2404DC
:10011300F50AE43EF50980DFAE0BAF0C7C007D0AE7
:10012300120463EF2404F50CE43EF50B80C920921E
:100133003E7F1E7E001206472092347F351206B999
:10014300E5087015AE09AF0AFC7D0A120463EF24BB
:1001530005F50AE43EF50980DFAE0BAF0C7C007DAC
:100163000A120463EF2405F50CE43EF50B80C92065
:10017300913E7F1E7E001206472091347F36120681
:10018300B9E5087015AE09AF0AFC7D0A120463EFE6
:100193002406F50AE43EF50980DFAE0BAF0C7C00C4
:1001A3007D0A120463EF2406F50CE43EF50B80C9C7
:1001B3002090177F1E7E0012064720900D7F581255
:1001C30006B9750801750D5880F0D297D296C2957D
:1001D300D29420933E7F1E7E001206472093347FE5
:1001E300311206B9E5087015AE09AF0AFC7D0A1293
:1001F3000463EF2401F50AE43EF50980DFAE0BAF9B
:100203000C7C007D0A120463EF2401F50CE43EF537
:100213000B80C920923E7F1E7E0012064720923437
:100223007F321206B9E5087015AE09AF0AFC7D0AE4
:10023300120463EF2402F50AE43EF50980DFAE0BF6
:10024300AF0C7C007D0A120463EF2402F50CE43E3C
:10025300F50B80C920913E7F1E7E00120647209138
:10026300347F331206B9E5087015AE09AF0AFC7D79
:100273000A120463EF2403F50AE43EF50980DFAEB6
:100283000BAF0C7C007D0A120463EF2403F50CE42E
:100293003EF50B80C92090177F1E7E001206472073
:1002A300900D7F2D1206B9750801750D2D80F0D2C2
:1002B30097D296D295C29420931C7F1E7E0012067D
:1002C300472093127F011206A7E4F50BF50CF509FD
:1002D300F50AF50880EB2092347F1E7E0012064754
:1002E30020922A7F301206B9E5087010AE09AF0AD2
:1002F300FC7D0A1204638E098F0A80E4AE0BAF0CF7
:100303007C007D0A1204638E0B8F0C80D32091171F
:100313007F1E7E0012064720910D7F3D1206B975A0
:1003230008011204CA80F02090177F1E7E00120677
:100333004720900D7F2B1206B9750801750D2B8090
:02034300F022A6
:1004CA007FC01206A7E50DB42B0DE50A250CFFE542
:1004DA0009350BFE120345E50D642D7036D3E50A86
:1004EA00950CE509950B4002800BE50CB50A11E560
:1004FA000BB5090CC3E50A950CFFE509950B800FAE
:10050A007F2D1206B9C3E50C950AFFE50B9509FE86
:10051A00120345E50DB42F24E50C450B6010AC0B16
:10052A00AD0CAE09AF0A120475120345800E7F01A5
:10053A001206A77BFF7A067967120616E50DB458EC
:10054A000EAC09AD0AAE0BAF0C12046312034522BE
:100345008E108F11D3E511940FE510942740237C6F
:10035500277D101204758E0E8F0FEF2430FF1206C5
:10036500B9AE10AF117C277D101204758C108D115C
:100375008015D3E51194E7E51094034031E5119418
:100385000FE51094275027AE10AF117C037DE812BE
:1003950004758E0E8F0FEF2430FF1206B9AE10AF25
:1003A500117C037DE81204758C108D118015D3E541
:1003B500119463E51094004031E51194E7E510943C
:1003C500035027AE10AF117C007D641204758E0EAC
:1003D5008F0FEF2430FF1206B9AE10AF117C007DF0
:1003E500641204758C108D118015D3E5119409E5FF
:1003F5001094004033E5119463E51094005029AE44
:1004050010AF117C007D0A1204758E0E8F0FEF243C
:1004150030FF1206B9AE10AF117C007D0A120475CB
:100425008C0E8D0FE50F8002E5112430FF1206B901
:0104350022A4
:1005E60012067F7F801206A77BFF7A06796D1206B8
:1005F600167FC01206A77BFF7A0679741206167F4D
:10060600967E001206477F011206A712000380FBA2
:10067F007F381206A77F0C1206A77F011206A77FED
:04068F00800206A738
:1006A7008F80C2A5C2A6120641C2A77F0A7E00029A
:0206B7000647F4
:1006B9008F80C2A5D2A6120641C2A77F0A7E000278
:0206C9000647E2
:060616008B108A1189120D
:10061C00E4F513F514AB10AA11A9128514828513F5
:10062C0083120436FF600D1206B90514E51470E54B
:04063C00051380E141
:010640002297
:10069300EF7007ED2480F5158005ED24C0F515AF47
:0406A300150206A78F
:06064100D2A77F0A7E0033
:10064700E4FDFCC3ED9FEC9E5015E4FBFA0BBB00E9
:0F065700010ABA02F8BBBCF50DBD00010C80E42E
:010666002271
:0300000002055A9C
:0C055A00787FE4F6D8FD7581150205A13C
:10043600BB010CE58229F582E5833AF583E022507B
:1004460006E92582F8E622BBFE06E92582F8E222C5
:0D045600E58229F582E5833AF583E49322DF
:10046300EF8DF0A4A8F0CF8CF0A428CE8DF0A42EAD
:02047300FE2267
:10047500BC000BBE0029EF8DF084FFADF022E4CC6B
:10048500F875F008EF2FFFEE33FEEC33FCEE9DEC34
:10049500984005FCEE9DFE0FD5F0E9E4CEFD22ED7A
:1004A500F8F5F0EE8420D21CFEADF075F008EF2FC4
:1004B500FFED33FD4007985006D5F0F222C398FDB5
:0504C5000FD5F0EA2252
:100566000205E6E493A3F8E493A34003F68001F2C0
:1005760008DFF48029E493A3F85407240CC8C33396
:10058600C4540F4420C8834004F456800146F6DF65
:10059600E4800B01020408102040809006CBE47E24
:1005A600019360BCA3FF543F30E509541FFEE4935A
:1005B600A360010ECF54C025E060A840B8E493A321
:1005C600FAE493A3F8E493A3C8C582C8CAC583CA4C
:1005D600F0A3C8C582C8CAC583CADFE9DEE780BE04
:0106D6000023
:00000001FF
