:080E7000120E05120BF380FEC7
:100E05007F38120E407F0C120E407F01120E407F7C
:040E150080020E4009
:100E40008F80C2A5C2A6120DDFC2A77F0A7E000254
:020E50000DE5AE
:100E52008F80C2A5D2A6120DDFC2A77F0A7E000232
:020E62000DE59C
:060DB4008B118A12891365
:100DBA00E4F514F515AB11AA12A913851582851449
:100DCA00831209C5FF600D120E520515E51570E56F
:040DDA00051480E19B
:010DDE0022F2
:100E1900EF7007ED2480F5118005ED24C0F511AFC1
:040E290011020E4064
:060DDF00D2A77F0A7E008E
:100DE500E4FDFCC3ED9FEC9E5015E4FBFA0BBB0044
:0F0DF500010AEB64704A70F50DBD00010C80E43B
:010E040022CB
:100E2D0053696D706C6563616C63756C61746F7221
:030E3D00003D0075
:100BF300E4F508F509FDFF120E197BFF7A0E792D36
:100C0300120DB4120A9D8F0E120D4D8E0A8F0BE436
:100C1300FD7F01120E19AF0E120E52120A9D8F1094
:100C23007D017F01120E19AF10120E52120A9D8F11
:100C33000F120D4D8E0C8F0D7D027F01120E19AF19
:100C43000F120E527D037F01120E197BFF7A0E796C
:100C53003E120DB47D047F01120E19E51024D660F7
:100C63002424FD601324FE602E24047040E50D252A
:100C73000BFDE50C350A800AC3E50B950DFDE50A6E
:100C8300950CFC8022AC0CAD0DAE0AAF0B1209F231
:100C9300AC06AD07EC8010AC0CAD0DAE0AAF0B1279
:100CA3000A04AC06AD07EC12090B120CB4E4FEFF08
:010CB300221E
:100A9D00E4F511E51164307003020BE9E5116431E1
:100AAD007003020BE9E51164327003020BE9E511E5
:100ABD0064337003020BE9E51164347003020BE932
:100ACD00E51164357003020BE9E51164367003021C
:100ADD000BE9E51164377003020BE9E51164387019
:100AED0003020BE9E51164397003020BE9E51164AA
:100AFD002D7003020BE9E511642A7003020BE9E581
:100B0D0011643D7003020BE9E511642B7003020BB8
:100B1D00E9E511642F7003020BE9E51164437003DD
:100B2D00020BE9C290D291D292D2932094062090DA
:100B3D000375112B20950620900375112D20960617
:100B4D0020900375112A20970620900375112FD23E
:100B5D0090C291D292D29320940620910375113DAB
:100B6D00209506209103751133209606209103756B
:100B7D001136209706209103751139D290D291C26A
:100B8D0092D2932094062092037511302095062061
:100B9D009203751132209606209203751135209718
:100BAD0006209203751138D290D291D292C2932021
:100BBD009406209303751143209506209303751118
:100BCD0031209606209303751134309703020AA045
:100BDD00309303020AA0751137020AA07FF47E013B
:050BED00120DE5AF113F
:010BF20022E0
:100D4D00EF24D0B40A00505B900D6375F003A4C579
:100D5D008325F0C58373020D81020D83020D880278
:100D6D000D8D020D92020D97020D9C020DA1020D2B
:100D7D00A6020DAB802D7E007F01227E007F022218
:100D8D007E007F03227E007F04227E007F05227E6F
:100D9D00007F06227E007F07227E007F08227E00D4
:070DAD007F0922E4FEFF2292
:080CB4008F148E138D128C11B8
:100CBC00E4F515F516F517FFFE7D207C41AB14AA63
:100CCC0013A912A8111208001209448E188F19AF1B
:100CDC0014AE13AD12AC111209448E1A8F1BC3E55E
:100CEC001A6480948050107CFF7DFF1209F28E1ADA
:100CFC008F1B7F2D120E52AE1AAF1B7C007D0A1279
:100D0C000A048F16E51660062430FF120E52E51603
:100D1C0075F00AA4FEC3E51B9EF5152430FF120ED8
:100D2C00527F2E120E52AE18AF197C007D0A120A99
:100D3C0004ED2430F517FF120E527FD07E07020D02
:010D4C00E5C1
:10080000EC4D6011E8497017ED33EC3304600DE4F2
:10081000FCFFFEFD22E933E8330470F80209B01250
:10082000097B58046009E4CC248150062850090251
:1008300009BA2840030209B7C0E0EB4A7044B98006
:1008400006D0E0FB0209A6EF4E701CBD8008EBFF4E
:10085000EAFEE9FD80EBE98DF0A4FEE5F00208E98F
:10086000E9CDF9EAFEEBFFEF89F0A4FCE5F0CE89D3
:10087000F0A42EFFE435F0CD89F0A42DFEE435F090
:100880008067EF4E7005BD80D780C3EF8BF0A4ACBE
:10089000F0EE8BF0A42CFCE435F0F8EF8AF0A42CF9
:1008A000E5F038FCE433CB8DF0A42CFCE5F03BF80C
:1008B000EE8AF0A42CFCE5F038F8E433CF89F0A4FC
:1008C0002CFCE5F038CF3400CE89F0A42FFFE5F002
:1008D0003EFEE433C98DF0A42EFEE5F039CD8AF05A
:1008E000A42FFFE5F03EFEE43DFD33D0E0FB5007D2
:1008F0000BBB000F0209BAEC2CFCEF33FFEE33FE0A
:06090000ED33FD02099237
:1009060075F020800E75F010800575F0087D007E6C
:10091600007F003392D530D503120A3AEC334010EB
:10092600EF33FFEE33FEED33FDEC33FCD5F0ED2275
:0E093600E5F0247EA2D513CC92E7CDCEFF22B1
:10094400EDD2E7CD33EC3392D524814006E4FFFEAB
:10095400FDFC22FCE4CFCECDCC24E0501174FF800A
:10096400EDC3CC13CCCD13CDCE13CECF13CF0470A7
:07097400F030D5DE020A3A63
:10097B00E9D2E7C933E833F892D5EDD2E7CD33ECC2
:07098B0033FC5002B2D5223B
:10099200EC30E7100FBF000C0EBE00080DBD0004C6
:1009A2000BEB6014A2D5EB13FCED92E7FD2274FF72
:1009B200FCFDFEFF22E480F8A2D574FF13FC7D80CB
:0309C200E480EFDF
:03000000020E6489
:0C0E6400787FE4F6D8FD75811B020E704B
:1009C500BB010CE58229F582E5833AF583E02250E7
:1009D50006E92582F8E622BBFE06E92582F8E22231
:0D09E500E58229F582E5833AF583E493224B
:1009F200EF8DF0A4A8F0CF8CF0A428CE8DF0A42E19
:020A0200FE22D2
:100A0400C2D5EC30E709B2D5E4C39DFDE49CFCEE0D
:100A140030E715B2D5E4C39FFFE49EFE120A48C333
:100A2400E49DFDE49CFC8003120A4830D507C3E42E
:060A34009FFFE49EFE227C
:0E0A3A00C3E49FFFE49EFEE49DFDE49CFC22CD
:100A4800BC000BBE0029EF8DF084FFADF022E4CC92
:100A5800F875F008EF2FFFEE33FEEC33FCEE9DEC5B
:100A6800984005FCEE9DFE0FD5F0E9E4CEFD22EDA1
:100A7800F8F5F0EE8420D21CFEADF075F008EF2FEB
:100A8800FFED33FD4007985006D5F0F222C398FDDC
:050A98000FD5F0EA2279
:00000001FF
