:100940000114000808000C00080004000014150041
:100950003F0006005B004F0066006D007D00070051
:030960007F006FA6
:100AA4007D037C00EF601775F00A8474102DF8A69E
:0E0AB400F0EF75F00A84FFED1D70E91C80E67E
:010AC2002211
:1003F60074102514F8E6B40A0040030204C89004F9
:100406000BF828287302042902043A02044A02045B
:100416005A02046A02047A02048A02049A0204AAAC
:100426000204BAE51425E02408F808E6F5A08516C6
:10043600800204C8E51425E02408F808E6F5A0853E
:100446001880807EE51425E02408F808E6F5A085E6
:100456001A80806EE51425E02408F808E6F5A085E4
:100466001C80805EE51425E02408F808E6F5A085E2
:100476001E80804EE51425E02408F808E6F5A085E0
:100486002080803EE51425E02408F808E6F5A085DE
:100496002280802EE51425E02408F808E6F5A085DC
:1004A6002480801EE51425E02408F808E6F5A085DA
:1004B6002680800EE51425E02408F808E6F5A085D8
:0F04C60028800514E514D394034003E4F51422B1
:0E0BD80063616C63756C61746F723A003D006E
:1004D500E4F543F544FDFF120B7B7BFF7A0B79D8DE
:1004E500120A0B1202A08F491206BB8E458F46E4F5
:1004F500FD7F01120B7BAF49120BB41202A08F4B8B
:100505007D017F01120B7BAF4B120BB41202A08F42
:100515004A1206BB8E478F487D027F01120B7BAFC7
:100525004A120BB47D037F01120B7B7BFF7A0B799B
:10053500E4120A0B7D047F01120B7BE54B24D66088
:100545002424FD601324FE602E24047040E5482514
:1005550046FDE5473545800AC3E5469548FDE54531
:100565009547FC8022AC47AD48AE45AF461201F534
:10057500AC06AD07EC8010AC47AD48AE45AF4612B2
:100585000207AC06AD07EC12010E120596E4FEFF5C
:010595002243
:1002A000E4F54CE54C643070030203ECE54C64313A
:1002B00070030203ECE54C643270030203ECE54C7E
:1002C000643370030203ECE54C643470030203EC06
:1002D000E54C643570030203ECE54C6436700302B0
:1002E00003ECE54C643770030203ECE54C643870B2
:1002F000030203ECE54C643970030203ECE54C6443
:100300002D70030203ECE54C642A70030203ECE554
:100310004C643D70030203ECE54C642B7003020354
:10032000ECE54C642F70030203ECE54C644370036E
:100330000203ECC290D291D292D2932094062090E4
:1003400003754C2B209506209003754C2D209606A6
:10035000209003754C2A209706209003754C2FD2CD
:1003600090C291D292D293209406209103754C3D75
:10037000209506209103754C332096062091037535
:100380004C36209706209103754C39D290D291C2F9
:1003900092D293209406209203754C30209506202B
:1003A0009203754C32209606209203754C352097A7
:1003B00006209203754C38D290D291D292C29320EB
:1003C0009406209303754C43209506209303754CA7
:1003D00031209606209303754C343097030202A314
:1003E0003093030202A3754C370202A37FE87E0319
:0503F000120A3CAF4CB5
:0103F50022E5
:1006BB00EF24D0B40A00505B9006D175F003A4C5AB
:1006CB008325F0C583730206EF0206F10206F602DC
:1006DB0006FB02070002070502070A02070F0207C3
:1006EB0014020719802D7E007F01227E007F0222DB
:1006FB007E007F03227E007F04227E007F05227E08
:10070B00007F06227E007F07227E007F08227E006C
:07071B007F0922E4FEFF222A
:080596008F4F8E4E8D4D8C4CF1
:10059E00E4F550F551F552FFFE7D207C41AB4FAA9C
:1005AE004EA94DA84C1200031201478E538F54AF23
:1005BE004FAE4EAD4DAC4C1201478E558F56C3E526
:1005CE00556480948050107CFF7DFF1201F58E558E
:1005DE008F567F2D120BB4AE55AF567C007D0A128E
:1005EE0002078F51E55160062430FF120BB4E5511E
:1005FE0075F00AA4FEC3E5569EF5502430FF120B8B
:10060E00B47F2E120BB4AE53AF547C007D0A12028F
:10061E0007ED2430F552FF120BB47FD07E07020A8D
:01062E003C8F
:100B32007F38120BA27F0C120BA27F01120BA27F35
:090B420080120BA27F06020BA237
:100BA2008F80C2A5C2A6120A36C2A77F0A7E0002A1
:020BB2000A3CFB
:100BB4008F80C2A5D2A6120A36C2A77F0A7E00027F
:020BC4000A3CE9
:060A0B008B4C8A4D894E60
:100A1100E4F54FF550AB4CAA4DA94E855082854F58
:100A2100831201C8FF600D120BB40550E55070E54B
:040A3100054F80E10C
:010A3500229E
:100B7B00EF7007ED2480F54C8005ED24C0F54CAFEC
:040B8B004C020BA26B
:0C0BE6007F01120BA27F057E00020A3C7A
:060A3600D2A77F0A7E003A
:100A3C00E4FDFCC3ED9FEC9E5015E4FBFA0BBB00F0
:0F0A4C00010AEB64704A70F50DBD00010C80E4E7
:010A5B002278
:0C0BF20054494D453A00444154453A0036
:050C0800D2B6C2B622C5
:0A0BFE00EF4E6003D2B422C2B4220D
:0409AA00AD07AC06E3
:1009AE00E4FBFAAF037E007401A807088005C33389
:1009BE00CE33CED8F9FFEE5CFEEF5DFF120BFE12CA
:0D09CE000C080BBB00010AEB64084A70D650
:0109DB0022F9
:100975009000007E001209AAE4FDFCE583C313F58F
:1009850083E58213F58230B4054382808006538265
:100995007F758300120C080DBD00010CED64084C39
:0409A50070D9AF82D4
:0109A900222B
:100B8F00A905D2B57E001209AAAF017E001209AAEB
:030B9F00C2B522BA
:10072200D2B57FBF7E001209AAE4FDFCE4F583F591
:1007320082FBFAE583C313F583E58213F58230B4B5
:1007420005438280800653827F758300120C080B5A
:10075200BB00010AEB64084A70D9ED25E02429F8B0
:10076200A68308A6820DBD00010CED64084C70BC86
:02077200C2B50E
:010774002262
:100A5C00C2B5C2B6E4FD7F8E120B8F7DAB7F9012B8
:100A6C000B8F7F81120975EF54816007E4FD7F8045
:030A7C00120B8FCB
:010A7F002254
:100AE1008F438D44AF03AD077F80120B8FAD447FE1
:0B0AF10082120B8FAD437F84020B8F3D
:100B64008F43E543C4540F2430FF120BB4E54354C0
:070B74000F2430FF020BB457
:10081B00E4FDFF120B7B7BFF7A0B79F2120A0B7D47
:10082B0006E4FF120B7BAF2E120B647F3A120BB454
:10083B007F0A7E00120A3C7D09E4FF120B7BAF2C72
:10084B00120B647F3A120BB47F0A7E00120A3C7DB6
:10085B000CE4FF120B7BAF2A120B647F0A7E0002A3
:02086B000A3C45
:100B4B008D438B44AD077F86120B8FAD437F88128D
:090B5B000B8FAD447F8C020B8F5F
:10077500E4FD7F01120B7B7BFF7A0B79F8120A0BE4
:100785007D067F01120B7BAF30120B647F3A120B93
:10079500B47F0A7E00120A3C7D097F01120B7BAFF4
:1007A50032120B647F3A120BB47F0A7E00120A3CA8
:1007B5007D0C7F01120B7BAF36120B647F0A7E0026
:0307C500020A3CE9
:100A8000120A5C7B507D597F23120AE17B237D1281
:100A90007F31120B4BD2B5120722C2B512081B12BE
:040AA000077580F165
:06096300016300016400C5
:10086D00120B321202A08F64E5631460171460241A
:10087D00240270EF120BE61204D5E564B443E4755F
:10088D00630180DF120BE61209DCE564B443D47515
:10089D00630280CFC2A9E4F589C28CC28E120BE629
:0D08AD00120A80E564B443BBE4F56380B635
:020C0D002E00B7
:0B09690002590000015D00025E00006A
:100904008561993099FDC2997F647E00120A3C8505
:100914005C993099FDC2997F647E00120A3C855B24
:10092400993099FDC2997F647E00120A3C75990A38
:0C0934003099FDC2997F647E00020A3CED
:100AFC00D2B77F087E00120BCDC2B77F417E0012A9
:0B0B0C000BCDD2B77F147E00020BCD92
:070BC600120B177F0A7E00ED
:0B0BCD00EF1FAC0670011E4C70F622FA
:100AC300E4FB7D08C2B7EBC313FBD2B730B70343D4
:0D0AD30003807F047E00120BCDDDE9AF0330
:010AE00022F3
:020B1700AD0728
:100B19007B08C2B7ED1392B77F057E00120BCDD2C9
:080B2900B7EDA2E713FDDBEAC2
:010B310022A1
:1007C800120AFC7FCC120B177F44120BC6120AFCCC
:1007D8007FCC120B177FBE120BC6120AC3755E00C0
:1007E8008F5F120AC38F5DEF7F00FEEF255FFFE585
:1007F8005E3EC4F854F0C8EFC4540F48F562FF7E5B
:10080800007C007D091201F57D05120207EF242006
:03081800F557226F
:1008BA00EF75F064842430F561EF75F06484E5F037
:1008CA0075F00A842430F55CEF75F00A84E5F024AB
:1008DA0030F55BEFF558C395582430F560AF6112D7
:1008EA000BB4AF5C120BB4AF5B120BB47BFF7A0C88
:0A08FA00790D120A0BAF60020BB477
:1009DC00D2A2D2A3D2A47580FFD2A2D2A3C2A475F4
:1009EC008079120B32D2AFD2A975892175985075C6
:0F09FC008DFD758CFC758A18D28CD28E02090481
:10000300EC4D6011E8497017ED33EC3304600DE4F7
:10001300FCFFFEFD22E933E8330470F80201B3125A
:10002300017E58046009E4CC24815006285009025B
:1000330001BD2840030201BAC0E0EB4A7044B98015
:1000430006D0E0FB0201A9EF4E701CBD8008EBFF58
:10005300EAFEE9FD80EBE98DF0A4FEE5F00200EC99
:10006300E9CDF9EAFEEBFFEF89F0A4FCE5F0CE89D8
:10007300F0A42EFFE435F0CD89F0A42DFEE435F095
:100083008067EF4E7005BD80D780C3EF8BF0A4ACC3
:10009300F0EE8BF0A42CFCE435F0F8EF8AF0A42CFE
:1000A300E5F038FCE433CB8DF0A42CFCE5F03BF811
:1000B300EE8AF0A42CFCE5F038F8E433CF89F0A401
:1000C3002CFCE5F038CF3400CE89F0A42FFFE5F007
:1000D3003EFEE433C98DF0A42EFEE5F039CD8AF05F
:1000E300A42FFFE5F03EFEE43DFD33D0E0FB5007D7
:1000F3000BBB000F0201BDEC2CFCEF33FFEE33FE14
:06010300ED33FD02019541
:1001090075F020800E75F010800575F0087D007E71
:10011900007F003392D530D50312023DEC334010F5
:10012900EF33FFEE33FEED33FDEC33FCD5F0ED227A
:0E013900E5F0247EA2D513CC92E7CDCEFF22B6
:10014700EDD2E7CD33EC3392D524814006E4FFFEB0
:10015700FDFC22FCE4CFCECDCC24E0501174FF800F
:10016700EDC3CC13CCCD13CDCE13CECF13CF0470AC
:07017700F030D5DE02023D6D
:10017E00E9D2E7C933E833F892D5EDD2E7CD33ECC7
:07018E0033FC5002B2D52240
:10019500EC30E7100FBF000C0EBE00080DBD0004CB
:1001A5000BEB6014A2D5EB13FCED92E7FD2274FF77
:1001B500FCFDFEFF22E480F8A2D574FF13FC7D80D0
:0301C500E480EFE4
:0300000002062FC6
:0C062F00787FE4F6D8FD75816402067641
:1001C800BB010CE58229F582E5833AF583E02250EC
:1001D80006E92582F8E622BBFE06E92582F8E22236
:0D01E800E58229F582E5833AF583E4932250
:1001F500EF8DF0A4A8F0CF8CF0A428CE8DF0A42E1E
:02020500FE22D7
:10020700C2D5EC30E709B2D5E4C39DFDE49CFCEE12
:1002170030E715B2D5E4C39FFFE49EFE12024BC33D
:10022700E49DFDE49CFC800312024B30D507C3E438
:060237009FFFE49EFE2281
:0E023D00C3E49FFFE49EFEE49DFDE49CFC22D2
:10063B0002086DE493A3F8E493A34003F68001F260
:10064B0008DFF48029E493A3F85407240CC8C333C0
:10065B00C4540F4420C8834004F456800146F6DF8F
:10066B00E4800B0102040810204080900940E47ED6
:10067B00019360BCA3FF543F30E509541FFEE49384
:10068B00A360010ECF54C025E060A840B8E493A34B
:10069B00FAE493A3F8E493A3C8C582C8CAC583CA76
:1006AB00F0A3C8C582C8CAC583CADFE9DEE780BE2E
:010974000082
:10024B00BC000BBE0029EF8DF084FFADF022E4CC97
:10025B00F875F008EF2FFFEE33FEEC33FCEE9DEC60
:10026B00984005FCEE9DFE0FD5F0E9E4CEFD22EDA6
:10027B00F8F5F0EE8420D21CFEADF075F008EF2FF0
:10028B00FFED33FD4007985006D5F0F222C398FDE1
:05029B000FD5F0EA227E
:00000001FF
