:0E033700454E54455220544845204B45590030
:1002B0001202EB7F801203137BFF7A03793712025D
:1002C0005F7FC01203131200D8D2A2C2A3D2A4121D
:0402D000000380DFC8
:1002D4001408003F0006005B004F0066006D007DBF
:0602E4000007007F006F1F
:10000300D290D291D292D293C297D296D295D294D1
:100013002093083093FD758007801F20920830924B
:10002300FD75807F80142091083091FD75806F806D
:10003300092090063090FD758006D297C296D2951E
:10004300D2942093083093FD758066802120920816
:100053003092FD75806D80162091083091FD75807A
:100063007D800B2090083090FD7F78120325D29776
:10007300D296C295D2942093083093FD7580068062
:10008300212092083092FD75805B80162091083004
:1000930091FD850F80800B2090083090FD7F2D12FD
:1000A3000325D297D296D295C2942093083093FD1C
:1000B3007F010203132092073092FD8509802220DD
:1000C30091073091FD7F3D80082090083090FD7F9F
:0500D3002B12032522A1
:1002EB007F381203137F0C1203137F011203137F4A
:0402FB008002031367
:100313008F80C2A5C2A612028AC2A77F0A7E0002EC
:02032300029046
:100325008F80C2A5D2A612028AC2A77F0A7E0002CA
:02033500029034
:06025F008B1C8A1D891EA4
:10026500E4F51FF520AB1CAA1DA91E852082851F5C
:1002750083120232FF600D1203250520E52070E58B
:04028500051F80E1F0
:010289002252
:1002FF00EF7007ED2480F5218005ED24C0F521AFC7
:04030F0021020313B1
:06028A00D2A77F0A7E00EE
:10029000E4FDFCC3ED9FEC9E5015E4FBFA0BBB00A4
:0F02A000010AEB64704A70F50DBD00010C80E49B
:0102AF00222C
:1000D800D290D291D292D293C297D296D295D294FC
:1000E8002093073093FD7F37801C2092073092FDC4
:1000F8007F3880122091073091FD7F398008209049
:10010800083090FD7F2F120325D297C296D295D240
:10011800942093073093FD7F34801C2092073092FF
:10012800FD7F3580122091073091FD7F36800820B1
:1001380090083090FD7F2A120325D297D296C29557
:10014800D2942093073093FD7F31801C2092073092
:1001580092FD7F3280122091073091FD7F33800815
:100168002090083090FD7F2D120325D297D296D289
:1001780095C2942093083093FD7F010203132092C7
:10018800073092FD7F3080122091073091FD7F3D2E
:0E01980080082090083090FD7F2B1203252256
:030000000201A654
:0C01A600787FE4F6D8FD7581210201EDA0
:10023200BB010CE58229F582E5833AF583E0225081
:1002420006E92582F8E622BBFE06E92582F8E222CB
:0D025200E58229F582E5833AF583E49322E5
:1001B2000202B0E493A3F8E493A34003F68001F2B1
:1001C20008DFF48029E493A3F85407240CC8C3334E
:1001D200C4540F4420C8834004F456800146F6DF1D
:1001E200E4800B01020408102040809002D4E47ED7
:1001F200019360BCA3FF543F30E509541FFEE49312
:10020200A360010ECF54C025E060A840B8E493A3D8
:10021200FAE493A3F8E493A3C8C582C8CAC583CA03
:10022200F0A3C8C582C8CAC583CADFE9DEE780BEBB
:0102EA000013
:00000001FF
