:0F015000456E74657220746865206B65793A009E
:1000D1007F3812016B7F0E12016B7F0612016B7B61
:1000E100FF7A0179501200F87FC012016B7F141260
:0700F100016B12000380FB0C
:10000300D297D296D295D294C290D291D292D293D1
:100013002094073094FD7F37801C2095073095FD91
:100023007F3880122096073096FD7F39800820970D
:10003300083097FD7F2F120175D290C291D292D2D0
:10004300932094073094FD7F34801C2095073095CE
:10005300FD7F3580122096073096FD7F368008207D
:1000630097083097FD7F2A120175D290D291C292E0
:10007300D2932094073094FD7F31801C2095073064
:1000830095FD7F3280122096073096FD7F338008DE
:100093002097083097FD7F2D120175D290D291D20F
:1000A30092C2932094083094FD7F0102016B209546
:1000B300073095FD7F3080122096073096FD7F3DF7
:0E00C30080082097083097FD7F2B12017522D0
:0A016B008F80C2A612011DC2A72258
:0A0175008F80D2A612011DC2A7223E
:1000F8008B088A09890AAB08AA09A90A120137607C
:1001080013050AE50A7002050914F9120137FF12EE
:05011800017580E222E8
:08011D00C2A5D2A77FE87E0312
:10012500E4FDFCD3ED9FEC9E50070DBD00010C8056
:01013500F2D7
:0101360022A6
:0300000002015F9B
:0C015F00787FE4F6D8FD75810A0200D11B
:10013700BB010689828A83E0225002E722BBFE02C6
:09014700E32289828A83E49322F9
:00000001FF
