:0E0E7A0063616C63756C61746F723A003D00C9
:10057100E4900040F0A3F0FDFF120E067BFF7A0E1F
:10058100797A120BBF1202B7900046EFF01208F60B
:10059100900042EEF0A3EFF0E4FD7F01120E069011
:1005A1000046E0FF120E561202B7900048EFF07DB0
:1005B100017F01120E06900048E0FF120E56120252
:1005C100B7900047EFF01208F6900044EEF0A3EF69
:1005D100F07D027F01120E06900047E0FF120E56D9
:1005E1007D037F01120E067BFF7A0E7986120BBF07
:1005F1007D047F01120E06900048E024D660382465
:10060100FD601D24FE604A24047064900042E0FEF7
:10061100A3E0FF900045E02FFD900044E03E8014F0
:10062100900044E0FEA3E0FFC3900043E09FFD90F3
:100631000042E09EFC8032900044E0FCA3E0FD908B
:100641000042E0FEA3E0FF120200AC06AD07EC8021
:1006510018900044E0FCA3E0FD900042E0FEA3E01E
:10066100FF120212AC06AD07EC120119120674E476
:03067100FEFF2267
:1002B700E4900049F0900049E0FF643070030204C5
:1002C70026EF64317003020426EF643270030204E0
:1002D70026EF64337003020426EF643470030204CC
:1002E70026EF64357003020426EF643670030204B8
:1002F70026EF64377003020426EF643870030204A4
:1003070026EF64397003020426EF642D700302049C
:1003170026EF642A7003020426EF643D700302048B
:1003270026EF642B7003020426EF642F7003020488
:1003370026EF64437003020426C290D291D292D270
:1003470093209406209003742BF0209509209006A3
:10035700900049742DF0209609209006900049746A
:100367002AF0209709209006900049742FF0D29028
:10037700C291D292D2932094092091069000497499
:100387003DF02095092091069000497433F020969E
:10039700092091069000497436F0209709209106AC
:1003A7009000497439F0D290D291C292D29320949E
:1003B700092092069000497430F020950920920692
:1003C7009000497432F020960920920690004974F3
:1003D70035F02097092092069000497438F0D290A2
:1003E700D291D292C2932094092093069000497427
:1003F70043F02095092093069000497431F0209628
:10040700092093069000497434F03097030202BC28
:100417003093030202BC9000497437F00202BC7F9C
:0B042700E87E03120CA5900049E0FFE6
:0104320022A7
:1008F600EF24D0B40A00505B90090C75F003A4C530
:100906008325F0C5837302092A02092C02093102E4
:10091600093602093B02094002094502094A020951
:100926004F020954802D7E007F01227E007F022225
:100936007E007F03227E007F04227E007F05227ECA
:10094600007F06227E007F07227E007F08227E002F
:070956007F0922E4FEFF22ED
:060674009000491202563D
:10067A00E490004DF0A3F0A3F0FFFE7D207C4190B2
:10068A000049E0F8A3E0F9A3E0FAA3E0FB12000EA8
:10069A00120152900050EEF0A3EFF0900049E0FCF6
:1006AA00A3E0FDA3E0FEA3E0FF120152900052EE88
:1006BA00F0A3EFF0C3EE64809480501C900052E0E7
:1006CA00FEA3E0FF7CFF7DFF120200900052EEF0D5
:1006DA00A3EFF07F2D120E56900052E0FEA3E0FF2A
:1006EA007C007D0A12021290004EEFF06007E024AF
:1006FA0030FF120E56900052A3E0FF90004EE075B4
:10070A00F00AA4FEC3EF9E90004DF02430FF120EB3
:10071A00567F2E120E56900050E0FEA3E0FF7C009A
:10072A007D0A120212ED2430FF90004FF0120E568D
:07073A007FD07E07020CA531
:100DED007F38120E447F0C120E447F01120E447F89
:090DFD0080120E447F06020E4430
:100E44008F80C2A5C2A6120C9FC2A77F0A7E000291
:020E54000CA5EB
:100E56008F80C2A5D2A6120C9FC2A77F0A7E00026F
:020E66000CA5D9
:0B0BBF00900049EBF0A3EAF0A3E9F07E
:100BCA00E4A3F0A3F0900049E0FBA3E0FAA3E0F964
:100BDA00A3E0FEA3E0F5828E831201D3FF60131215
:100BEA000E5690004DE004F070DB90004CE004F0EB
:020BFA0080D3A6
:010BFC0022D6
:100E0600EF7005ED24808003ED24C0900049F0903A
:070E16000049E0FF020E4459
:0C0E88007F01120E447F057E00020CA5C5
:060C9F00D2A77F0A7E00CF
:100CA500E4FDFCC3ED9FEC9E5015E4FBFA0BBB0085
:0F0CB500010AEB64704A70F50DBD00010C80E47C
:010CC400220D
:0C0E940054494D453A00444154453A0091
:05000300D2B6C2B622D6
:0A0EA000EF4E6003D2B422C2B42268
:040C3A00AD07AC0650
:100C3E00E4FBFAAF037E007401A807088005C333F6
:100C4E00CE33CED8F9FFEE5CFEEF5DF5828E83FFDC
:100C5E00120EA01200030BBB00010AEB64084A70CF
:010C6E00D2B3
:010C6F002262
:100B3300E4900040F0A3F0FE120C3AE4FDFC9000B8
:100B430040E0C313F0A3E013F030B40C900040E096
:100B5300F0A3E04480F0800AE4900040F0A3E05466
:100B63007FF01200030DBD00010CED64084C70CE44
:060B7300900040A3E0FF2A
:010B79002259
:100E3100A905D2B57E00120C3AAF017E00120C3A20
:030E4100C2B52215
:10087D00E4900040F0A3F0D2B57FBFFE120C3AE435
:10088D00FDFCE4900040F0A3F0FBFA900040E0C3C3
:10089D0013F0A3E013F030B40C900040E0F0A3E0AF
:1008AD004480F0800AE4900040F0A3E0547FF01201
:1008BD0000030BBB00010AEB64084A70CE900040A8
:1008CD00E0FAA3E0FBED25E0FFEC33FE74212FF5FC
:1008DD008274003EF583EAF0A3EBF00DBD00010C30
:0808ED00ED64084C709CC2B5DB
:0108F50022E0
:100D1000C2B5C2B6E4FD7F8E120E317DAB7F90125C
:100D20000E317F81120B33EF54816007E4FD7F8029
:030D3000120E316F
:010D3300229D
:100CEB00900040EFF0A3EDF0AF03AD077F80120E45
:100CFB0031900041E0FD7F82120E31900040E0FD0B
:050D0B007F84020E319F
:030D7B00A3E0FFF3
:100D7E00900040EFF0E0C4540F2430FF120E569056
:0B0D8E000040E0540F2430FF020E561E
:100ADB00E4FDFF120E067BFF7A0E7994120BBF7D9D
:100AEB0006E4FF120E06900025120D7B7F3A120EC4
:100AFB00567F0A7E00120CA57D09E4FF120E0690AC
:100B0B000023120D7B7F3A120E567F0A7E00120CC9
:100B1B00A57D0CE4FF120E06900021A3E0FF120D41
:080B2B007E7F0A7E00020CA58A
:100D5800900040EDF0A3EBF0AD077F86120E3190C6
:100D68000040E0FD7F88120E31900041E0FD7F8C4D
:030D7800020E3137
:100A1D00E4FD7F01120E067BFF7A0E799A120BBF51
:100A2D007D067F01120E06900027A3E0FF120D7EBA
:100A3D007F3A120E567F0A7E00120CA57D097F01AA
:100A4D00120E06900029A3E0FF120D7E7F3A120EC2
:100A5D00567F0A7E00120CA57D0C7F01120E0690AA
:0F0A6D00002DA3E0FF120D7E7F0A7E00020CA574
:100D3400120D107B507D597F23120CEB7B237D1207
:100D44007F31120D58D2B512087DC2B5120ADB12DA
:040D54000A1D80F103
:080BFD004100600041006100AD
:10095D00120DED1202B7900061EFF0900060E014FF
:10096D00601C14602E240270EA120E88120571901C
:10097D000061E0B443DD9000607401F080D5120E8B
:10098D0088120C70900061E0B443C890006074024E
:10099D00F080C0C2A9E4F589C28CC28E120E8812F5
:1009AD000D34900061E0B443AAE4900060F080A3A0
:100E1D002E0054454D50455241545552452049538D
:040E2D003A00630024
:0E0C0500420056000041005A0042005B000011
:100B7A0090005EE0F5993099FDC2997F647E00127B
:100B8A000CA5900059E0F5993099FDC2997F647ED1
:100B9A0000120CA5900058E0F5993099FDC2997F92
:100BAA00647E00120CA575990A3099FDC2997F647A
:050BBA007E00020CA505
:100DB700D2B77F087E00120E6FC2B77F417E001246
:0B0DC7000E6FD2B77F147E00020E6F8B
:070E6800120DD27F0A7E008B
:0B0E6F00EF1FAC0670011E4C70F62255
:100D9900E4FB7D08C2B7EBC313FBD2B730B70344FA
:0D0DA90080FB7F047E00120E6FDDE9AF03BA
:010DB600221A
:020DD200AD076B
:100DD4007B08C2B7ED1392B77F057E00120E6FD267
:080DE400B7EDA2E713FDDBEA05
:010DEC0022E4
:100A7C00120DB77FCC120DD27F44120E68120DB737
:100A8C007FCC120DD27FBE120E68120D9990005BB6
:100A9C00E4F0A3EFF0120D9990005AEFF0FE9000E5
:100AAC005CE02400FF90005BE03EC4F854F0C8EF1B
:100ABC00C4540F48FF90005FF07E007C007D09124B
:0F0ACC0002007D05120212EF2420900054F02248
:1009BD00AD07ED75F06484243090005EF0FBED75AD
:1009CD00F06484E5F075F00A842430900059F0ED60
:1009DD0075F00A84E5F02430900058F0EDFF90009A
:1009ED0055F0C39F243090005DF0AF03120E56906A
:1009FD000059E0FF120E56900058E0FF120E567B84
:100A0D00FF7A0E791D120BBF90005DE0FF020E56AE
:03000B00020741A8
:10074100C0E0C0F0C083C082C0D075D000C000C07E
:1007510001C002C003C004C005C006C00790005715
:10076100E004F07006900056E004F0900056E0645A
:10077100017004A3E06490702E7F80120E447BFF11
:100781007A0E791F120BBF7FC0120E44120A7C90A1
:10079100005FE0FF1209BD7BFF7A0E792F120BBFBC
:1007A100900056E4F0A3F090005FE0FF120CC51238
:1007B100043390005FE0C394254012C2957F027E0E
:1007C10000120CA5D2957F027E00120CA5D2957560
:1007D1008CFC758A18D007D006D005D004D003D080
:1007E10002D001D000D0D0D082D083D0F0D0E0327E
:100C7000D2A2D2A3D2A47580FFD2A2D2A3C2A4755D
:100C80008079120DEDD2AFD2A97589217598507572
:0F0C90008DFD758CFC758A18D28CD28E020B7A72
:100C130041000C00480000000C00080004000054D0
:100C2300000D003F0006005B004F0066006D007D75
:060C33000007007F006FC6
:100CC5007D037C00EF601E75F00A8474082DF582A3
:100CD50074003CF583E5F0F0EF75F00A84FFED1D37
:050CE50070E21C80DF3D
:010CEA0022E7
:1004330090000CE0FF2408F582E43400F583E0B477
:100443000A004003020562900451F828287302044D
:100453006F02048502049E0204B70204D00204E87A
:10046300020500020518020530020548EF25E024C5
:1004730000F582E43400F583A3E0F5A090000D02BB
:10048300055E90000CE025E02400F582E43400F5DD
:1004930083A3E0F5A090000F02055E90000CE02519
:1004A300E02400F582E43400F583A3E0F5A0900096
:1004B3001102055E90000CE025E02400F582E4348F
:1004C30000F583A3E0F5A090001302055E90000CF5
:1004D300E025E02400F582E43400F583A3E0F5A0F1
:1004E300900015807690000CE025E02400F582E46E
:1004F3003400F583A3E0F5A0900017805E90000C14
:10050300E025E02400F582E43400F583A3E0F5A0C0
:10051300900019804690000CE025E02400F582E469
:100523003400F583A3E0F5A090001B802E90000C0F
:10053300E025E02400F582E43400F583A3E0F5A090
:1005430090001D801690000CE025E02400F582E465
:100553003400F583A3E0F5A090001FA3E0F580909D
:0E056300000CE004F0E0D394034002E4F02228
:10000E00EC4D6011E8497017ED33EC3304600DE4EC
:10001E00FCFFFEFD22E933E8330470F80201BE1244
:10002E00018958046009E4CC248150062850090245
:10003E0001C82840030201C5C0E0EB4A7044B980F4
:10004E0006D0E0FB0201B4EF4E701CBD8008EBFF42
:10005E00EAFEE9FD80EBE98DF0A4FEE5F00200F783
:10006E00E9CDF9EAFEEBFFEF89F0A4FCE5F0CE89CD
:10007E00F0A42EFFE435F0CD89F0A42DFEE435F08A
:10008E008067EF4E7005BD80D780C3EF8BF0A4ACB8
:10009E00F0EE8BF0A42CFCE435F0F8EF8AF0A42CF3
:1000AE00E5F038FCE433CB8DF0A42CFCE5F03BF806
:1000BE00EE8AF0A42CFCE5F038F8E433CF89F0A4F6
:1000CE002CFCE5F038CF3400CE89F0A42FFFE5F0FC
:1000DE003EFEE433C98DF0A42EFEE5F039CD8AF054
:1000EE00A42FFFE5F03EFEE43DFD33D0E0FB5007CC
:1000FE000BBB000F0201C8EC2CFCEF33FFEE33FEFE
:06010E00ED33FD0201A02B
:1001140075F020800E75F010800575F0087D007E66
:10012400007F003392D530D503120248EC334010DF
:10013400EF33FFEE33FEED33FDEC33FCD5F0ED226F
:0E014400E5F0247EA2D513CC92E7CDCEFF22AB
:10015200EDD2E7CD33EC3392D524814006E4FFFEA5
:10016200FDFC22FCE4CFCECDCC24E0501174FF8004
:10017200EDC3CC13CCCD13CDCE13CECF13CF0470A1
:07018200F030D5DE02024857
:10018900E9D2E7C933E833F892D5EDD2E7CD33ECBC
:0701990033FC5002B2D52235
:1001A000EC30E7100FBF000C0EBE00080DBD0004C0
:1001B0000BEB6014A2D5EB13FCED92E7FD2274FF6C
:1001C000FCFDFEFF22E480F8A2D574FF13FC7D80C5
:0301D000E480EFD9
:030000000207F103
:0C07F100787FE4F6D8FD75810702083817
:1001D300BB010CE58229F582E5833AF583E02250E1
:1001E30006E92582F8E622BBFE06E92582F8E2222B
:0D01F300E58229F582E5833AF583E4932245
:10020000EF8DF0A4A8F0CF8CF0A428CE8DF0A42E12
:02021000FE22CC
:10021200C2D5EC30E709B2D5E4C39DFDE49CFCEE07
:1002220030E715B2D5E4C39FFFE49EFE120262C31B
:10023200E49DFDE49CFC800312026230D507C3E416
:060242009FFFE49EFE2276
:0E024800C3E49FFFE49EFEE49DFDE49CFC22C7
:0C025600ECF0A3EDF0A3EEF0A3EFF0221B
:1007FD0002095DE493A3F8E493A34003F68001F2AC
:10080D0008DFF48029E493A3F85407240CC8C333FC
:10081D00C4540F4420C8834004F456800146F6DFCB
:10082D00E4800B0102040810204080900BFDE47E53
:10083D00019360BCA3FF543F30E509541FFEE493C0
:10084D00A360010ECF54C025E060A840B8E493A387
:10085D00FAE493A3F8E493A3C8C582C8CAC583CAB2
:10086D00F0A3C8C582C8CAC583CADFE9DEE780BE6A
:010C390000BA
:10026200BC000BBE0029EF8DF084FFADF022E4CC80
:10027200F875F008EF2FFFEE33FEEC33FCEE9DEC49
:10028200984005FCEE9DFE0FD5F0E9E4CEFD22ED8F
:10029200F8F5F0EE8420D21CFEADF075F008EF2FD9
:1002A200FFED33FD4007985006D5F0F222C398FDCA
:0502B2000FD5F0EA2267
:00000001FF
